:1000000019C028C027C026C025C024C023C022C0D4
:1000100021C020C01FC0B9C11DC01CC01BC01AC058
:1000200019C018C0D5C116C015C014C013C012C065
:1000300011C010C011241FBECFEFD4E0DEBFCDBF72
:1000400014E0A0E0B1E001C01D92A931B107E1F7D1
:1000500015D2E7C3D5CF26B189B190E080719070F9
:10006000880F991F880F991F2F73282B80917A0072
:10007000806480937A0080917A0086FDFCCF809125
:100080007900893B08F02058822F0895982F2091FD
:1000900008012130A9F0213020F0223009F045C0BC
:1000A00024C080910301981739F482E08093C00046
:1000B00081E080930801089583E08093C00035C0FB
:1000C000662369F58093040182E0809308019130F2
:1000D00011F480EC05C0923011F080E001C084E0A2
:1000E000809305011092060108956623C1F4E09102
:1000F0000601F0E0E751FE4F8083809106018F5F9B
:10010000809306019091050180910601981721F4D2
:1001100081E08093070103C02093080108951092A5
:10012000080183E08093C0000895109208010895AB
:10013000813011F480EC0895823011F080E0089550
:1001400084E00895A9E8B1E02FE3E22FF0E0E75B57
:10015000FE4F80818C932150E22FF0E0E75BFE4F51
:100160008081982F92959F7011969C9311978295FC
:10017000807F12968C931297215013962F3F29F768
:100180000895A9EEB3E02FE3E22FF0E0E755FC4F2E
:100190009291319692959F708081880F880F892B5C
:1001A0008C932150E22FF0E0E755FC4F929131966D
:1001B0009695969580818295807F892B11968C9358
:1001C00011972150E22FF0E0E755FC4F8081829596
:1001D000880F880F807C31979081892B12968C93A1
:1001E0001297225013962F3F79F60895A9E8B1E0AF
:1001F0002FE3E22FF0E0E751FD4F80818C932150F7
:10020000E22FF0E0E751FD4F8081982F92959F708B
:1002100011969C9311978295807F12968C931297DA
:10022000215013962F3F29F70895A9EEB3E02FE34D
:10023000E22FF0E0E75DFC4F9291319692959F702E
:100240008081880F880F892B8C932150E22FF0E05A
:10025000E75DFC4F929131969695969580818295B7
:10026000807F892B11968C9311972150E22FF0E01B
:10027000E75DFC4F80818295880F880F807C3197E5
:100280009081892B12968C931297225013962F3FB0
:1002900079F60895A9E8B1E02FE3E22FF0E0E759FD
:1002A000FC4F80818C932150E22FF0E0E759FC4F06
:1002B0008081982F92959F7011969C9311978295AB
:1002C000807F12968C931297215013962F3F29F717
:1002D0000895A9EEB3E02FE3E22FF0E0E75FFE4FD1
:1002E0009291319692959F708081880F880F892B0B
:1002F0008C932150E22FF0E0E75FFE4F9291319610
:100300009695969580818295807F892B11968C9306
:1003100011972150E22FF0E0E75FFE4F8081829538
:10032000880F880F807C31979081892B12968C934F
:100330001297225013962F3F79F6089514B88FE242
:1003400084B91AB88EEE8AB917B817B8089583E23F
:1003500084BD89E085BD10926E0084E087BD92E087
:1003600098BD109280008FE08093810010928200EF
:1003700090936F0080E18093890010928800109222
:100380008B0010928A00789408951F920F920FB6F6
:100390000F9211248F935B9A809102018F5F80935B
:1003A00002018150843031F481E080930101109288
:1003B000020108C082E48A95F1F75B9810928400EC
:1003C000109285008F910F900FBE0F901F9018957F
:1003D0001F920F920FB60F9211242F933F934F93BA
:1003E0005F936F937F938F939F93AF93BF93EF939D
:1003F000FF938091C6006091C000617047DEFF915D
:10040000EF91BF91AF919F918F917F916F915F918C
:100410004F913F912F910F900FBE0F901F90189505
:100420001F93299816E0812F8A95F1F789E891E0CA
:1004300060E6B3D12A9A82E48A95F1F72A98812F4F
:100440008A95F1F729981A95F1F71F9108951F934E
:10045000299A16E0812F8A95F1F789EE93E060E3FF
:100460009CD12A9A82E48A95F1F72A98812F8A955D
:10047000F1F729981A95F1F71F9108957F928F92BD
:100480009F92AF92BF92CF92DF92EF92FF920F9323
:100490001F93CF93DF9352DF5FD1B1D187E4809375
:1004A0007C0086E880937A00D6DD8093030180E0AB
:1004B000E82FF0E0DF01A751BE4F1C92E759FD4F36
:1004C00010828F5F8038A1F742DF80E090E02FEF4D
:1004D0003FE34FE1FC01E75BFE4F2083FC01E75166
:1004E000FD4F2083FC01E759FC4F2083FC01E755B9
:1004F000FC4F3083FC01E75DFC4F4083FC01E75F6C
:10050000FE4F308301968034910521F743E0842E1D
:1005100035E0732E24E0B22EAA24A39492E0992E03
:1005200080910701813009F0B8C0109207018091D5
:100530000401813009F074C060E070E040E050E0F8
:100540008B01075B1E4FEB01C759DC4FDB01A75145
:10055000BD4F20E030E06A010894C11CD11C82E04C
:10056000E82EF12CE40EF51EF901E40FF51FE7511A
:10057000FE4F8081F80181938F01F601E20FF31F96
:10058000E751FE4F80818993F701E20FF31FE75196
:10059000FE4F80818D932D5F3F4F2831310521F72C
:1005A00097E020E030E0F8E0CF2ED12CC60ED71E29
:1005B000E8E1EE2EF12CE40EF51E8A01075E1F4FD6
:1005C000EA016A96D601A90FB11DF701E20FF31FE8
:1005D000E751FE4F8081FD01E75BFE4F8083F8010C
:1005E000E20FF31FE751FE4F8081FD01E759FC4FF9
:1005F0008083FE01E20FF31FE751FE4F8081A75178
:10060000BD4F8C9391502D5F3F4F9F3FD9F6605F58
:100610007F4F405D5F4F6034710509F091CF37C067
:1006200080910401823099F58091E901982F9F70A3
:10063000891BE82FF0E09830B0F03F969850E91B06
:10064000F1098091EA01DF01A75BBE4F8C93809195
:10065000EB01DF01A759BC4F8C938091EC01E7516E
:10066000FD4F808314C0DF01A90FB11D8091EA0105
:10067000FD01E75BFE4F80838091EB01FD01E759AF
:10068000FC4F80838091EC01A751BD4F8C93109259
:100690000401109206011092050180910001823040
:1006A00049F1833030F4882361F0813009F051C082
:1006B00013C08430C1F1843040F1853009F049C065
:1006C0003DC040DD5EDD809101018823E1F31092A1
:1006D0000101A092000124CF5E9A5F9A289AB7DEAA
:1006E0009FDE5B982898109284001092850090926B
:1006F000000116CF7BDD99DD809101018823E1F3B4
:1007000010920101809200010BCF5E9A5F9A289AA5
:100710009EDE86DE5B985F981092840010928500C2
:10072000B0920001FDCEB6DDD4DD809101018823B9
:10073000E1F31092010170920001F2CE5E9A5F9A8D
:10074000289A85DE6DDE5B985E9810928400109288
:10075000850010920001E4CE84B1837C84B984B119
:100760008C6284B980E58CBD81E08DBD2A9A0895A4
:100770002A9A08952A9808958EBD0DB407FEFDCFDC
:1007800008951EBC0DB407FEFDCF8EB508958EBD35
:100790000DB407FEFDCF8EB50895FC0190E007C0B3
:1007A00080818EBD0DB407FEFDCF9F5F31969617F9
:1007B000B8F30895FC0190E007C01EBC0DB407FE1D
:1007C000FDCF8EB581939F5F9617B8F30895CF93B1
:1007D000DF93EC01DB0120E030E00CC0FE01E20F12
:1007E000F31F80818EBD0DB407FEFDCF8EB58D93B6
:1007F0002F5F3F4F241790F3DF91CF91089583E04F
:100800008093C0008CE98093C10086E08093C20091
:100810001092C50085E18093C4005298529A5A986C
:060820000895F894FFCFDB
:00000001FF
